{
  "address": "0x5FbDB2315678afecb367f032d93F642f64180aa3",
  "abi": [
    {
      "inputs": [],
      "name": "CrowdFunding__DeadlineShouldBeInTheFuture",
      "type": "error"
    },
    {
      "inputs": [],
      "name": "CrowdFunding__DonationNotSuccessFully",
      "type": "error"
    },
    {
      "inputs": [],
      "name": "CrowdFunding__PleaseSendEnough",
      "type": "error"
    },
    {
      "anonymous": false,
      "inputs": [
        {
          "indexed": true,
          "internalType": "address",
          "name": "_owner",
          "type": "address"
        },
        {
          "indexed": false,
          "internalType": "string",
          "name": "_title",
          "type": "string"
        },
        {
          "indexed": false,
          "internalType": "string",
          "name": "_description",
          "type": "string"
        },
        {
          "indexed": false,
          "internalType": "uint256",
          "name": "_target",
          "type": "uint256"
        },
        {
          "indexed": false,
          "internalType": "uint256",
          "name": "_deadline",
          "type": "uint256"
        },
        {
          "indexed": false,
          "internalType": "string",
          "name": "_image",
          "type": "string"
        }
      ],
      "name": "CampaignCreated",
      "type": "event"
    },
    {
      "inputs": [],
      "name": "campaignId",
      "outputs": [
        {
          "internalType": "uint256",
          "name": "",
          "type": "uint256"
        }
      ],
      "stateMutability": "view",
      "type": "function"
    },
    {
      "inputs": [
        {
          "internalType": "uint256",
          "name": "",
          "type": "uint256"
        }
      ],
      "name": "campaigns",
      "outputs": [
        {
          "internalType": "address",
          "name": "owner",
          "type": "address"
        },
        {
          "internalType": "string",
          "name": "title",
          "type": "string"
        },
        {
          "internalType": "string",
          "name": "description",
          "type": "string"
        },
        {
          "internalType": "uint256",
          "name": "target",
          "type": "uint256"
        },
        {
          "internalType": "uint256",
          "name": "deadline",
          "type": "uint256"
        },
        {
          "internalType": "uint256",
          "name": "amountCollected",
          "type": "uint256"
        },
        {
          "internalType": "string",
          "name": "image",
          "type": "string"
        }
      ],
      "stateMutability": "view",
      "type": "function"
    },
    {
      "inputs": [
        {
          "internalType": "string",
          "name": "_title",
          "type": "string"
        },
        {
          "internalType": "string",
          "name": "_description",
          "type": "string"
        },
        {
          "internalType": "uint256",
          "name": "_target",
          "type": "uint256"
        },
        {
          "internalType": "uint256",
          "name": "_deadline",
          "type": "uint256"
        },
        {
          "internalType": "string",
          "name": "_image",
          "type": "string"
        }
      ],
      "name": "createCampaign",
      "outputs": [],
      "stateMutability": "nonpayable",
      "type": "function"
    },
    {
      "inputs": [
        {
          "internalType": "uint256",
          "name": "_id",
          "type": "uint256"
        }
      ],
      "name": "donateToCampaign",
      "outputs": [],
      "stateMutability": "payable",
      "type": "function"
    },
    {
      "inputs": [],
      "name": "getCampaigns",
      "outputs": [
        {
          "components": [
            {
              "internalType": "address",
              "name": "owner",
              "type": "address"
            },
            {
              "internalType": "string",
              "name": "title",
              "type": "string"
            },
            {
              "internalType": "string",
              "name": "description",
              "type": "string"
            },
            {
              "internalType": "uint256",
              "name": "target",
              "type": "uint256"
            },
            {
              "internalType": "uint256",
              "name": "deadline",
              "type": "uint256"
            },
            {
              "internalType": "uint256",
              "name": "amountCollected",
              "type": "uint256"
            },
            {
              "internalType": "string",
              "name": "image",
              "type": "string"
            },
            {
              "internalType": "address[]",
              "name": "donators",
              "type": "address[]"
            },
            {
              "internalType": "uint256[]",
              "name": "donations",
              "type": "uint256[]"
            }
          ],
          "internalType": "struct CrowdFunding.Campaign[]",
          "name": "",
          "type": "tuple[]"
        }
      ],
      "stateMutability": "view",
      "type": "function"
    },
    {
      "inputs": [
        {
          "internalType": "uint256",
          "name": "_id",
          "type": "uint256"
        }
      ],
      "name": "getDonators",
      "outputs": [
        {
          "internalType": "address[]",
          "name": "",
          "type": "address[]"
        },
        {
          "internalType": "uint256[]",
          "name": "",
          "type": "uint256[]"
        }
      ],
      "stateMutability": "view",
      "type": "function"
    }
  ],
  "transactionHash": "0x1064d35a43b84ea73d1dadcd5a51172abe8db4cd7a6b75515b51bf90678988a4",
  "args": [],
  "numDeployments": 1,
  "solcInputHash": "c24afc61c32a07cc131b142292cad8bc",
  "bytecode": "0x6080604052600060025534801561001557600080fd5b5060016000819055506119dd8061002d6000396000f3fe6080604052600436106100555760003560e01c80630fa91fa91461005a578063141961bc1461009857806342a4fda8146100db5780638ed5b0fc146100f7578063a6b0363314610122578063d4e3dd6f1461014d575b600080fd5b34801561006657600080fd5b50610081600480360381019061007c9190610c85565b610176565b60405161008f929190610e60565b60405180910390f35b3480156100a457600080fd5b506100bf60048036038101906100ba9190610c85565b610288565b6040516100d29796959493929190610f45565b60405180910390f35b6100f560048036038101906100f09190610c85565b610482565b005b34801561010357600080fd5b5061010c610653565b6040516101199190610fc9565b60405180910390f35b34801561012e57600080fd5b50610137610659565b60405161014491906112af565b60405180910390f35b34801561015957600080fd5b50610174600480360381019061016f9190611406565b610a30565b005b60608060016000848152602001908152602001600020600701600160008581526020019081526020016000206008018180548060200260200160405190810160405280929190818152602001828054801561022657602002820191906000526020600020905b8160009054906101000a900473ffffffffffffffffffffffffffffffffffffffff1673ffffffffffffffffffffffffffffffffffffffff16815260200190600101908083116101dc575b505050505091508080548060200260200160405190810160405280929190818152602001828054801561027857602002820191906000526020600020905b815481526020019060010190808311610264575b5050505050905091509150915091565b60016020528060005260406000206000915090508060000160009054906101000a900473ffffffffffffffffffffffffffffffffffffffff16908060010180546102d190611504565b80601f01602080910402602001604051908101604052809291908181526020018280546102fd90611504565b801561034a5780601f1061031f5761010080835404028352916020019161034a565b820191906000526020600020905b81548152906001019060200180831161032d57829003601f168201915b50505050509080600201805461035f90611504565b80601f016020809104026020016040519081016040528092919081815260200182805461038b90611504565b80156103d85780601f106103ad576101008083540402835291602001916103d8565b820191906000526020600020905b8154815290600101906020018083116103bb57829003601f168201915b5050505050908060030154908060040154908060050154908060060180546103ff90611504565b80601f016020809104026020016040519081016040528092919081815260200182805461042b90611504565b80156104785780601f1061044d57610100808354040283529160200191610478565b820191906000526020600020905b81548152906001019060200180831161045b57829003601f168201915b5050505050905087565b600034116104bc576040517f62ff11ef00000000000000000000000000000000000000000000000000000000815260040160405180910390fd5b6000349050600060016000848152602001908152602001600020905060008160000160009054906101000a900473ffffffffffffffffffffffffffffffffffffffff1673ffffffffffffffffffffffffffffffffffffffff168360405161052290611566565b60006040518083038185875af1925050503d806000811461055f576040519150601f19603f3d011682016040523d82523d6000602084013e610564565b606091505b50509050801561061b5781600701339080600181540180825580915050600190039060005260206000200160009091909190916101000a81548173ffffffffffffffffffffffffffffffffffffffff021916908373ffffffffffffffffffffffffffffffffffffffff1602179055508160080183908060018154018082558091505060019003906000526020600020016000909190919091505582826005015461060e91906115aa565b826005018190555061064d565b6040517fda3c82f500000000000000000000000000000000000000000000000000000000815260040160405180910390fd5b50505050565b60025481565b6060600060025467ffffffffffffffff811115610679576106786112db565b5b6040519080825280602002602001820160405280156106b257816020015b61069f610bd9565b8152602001906001900390816106975790505b50905060005b600254811015610a2857600060016000838152602001908152602001600020905080604051806101200160405290816000820160009054906101000a900473ffffffffffffffffffffffffffffffffffffffff1673ffffffffffffffffffffffffffffffffffffffff1673ffffffffffffffffffffffffffffffffffffffff16815260200160018201805461074c90611504565b80601f016020809104026020016040519081016040528092919081815260200182805461077890611504565b80156107c55780601f1061079a576101008083540402835291602001916107c5565b820191906000526020600020905b8154815290600101906020018083116107a857829003601f168201915b505050505081526020016002820180546107de90611504565b80601f016020809104026020016040519081016040528092919081815260200182805461080a90611504565b80156108575780601f1061082c57610100808354040283529160200191610857565b820191906000526020600020905b81548152906001019060200180831161083a57829003601f168201915b5050505050815260200160038201548152602001600482015481526020016005820154815260200160068201805461088e90611504565b80601f01602080910402602001604051908101604052809291908181526020018280546108ba90611504565b80156109075780601f106108dc57610100808354040283529160200191610907565b820191906000526020600020905b8154815290600101906020018083116108ea57829003601f168201915b505050505081526020016007820180548060200260200160405190810160405280929190818152602001828054801561099557602002820191906000526020600020905b8160009054906101000a900473ffffffffffffffffffffffffffffffffffffffff1673ffffffffffffffffffffffffffffffffffffffff168152602001906001019080831161094b575b50505050508152602001600882018054806020026020016040519081016040528092919081815260200182805480156109ed57602002820191906000526020600020905b8154815260200190600101908083116109d9575b505050505081525050838381518110610a0957610a086115de565b5b6020026020010181905250508080610a209061160d565b9150506106b8565b508091505090565b600260005403610a75576040517f08c379a0000000000000000000000000000000000000000000000000000000008152600401610a6c906116a1565b60405180910390fd5b60026000819055506000600160006002548152602001908152602001600020905042831015610ad0576040517f5048659200000000000000000000000000000000000000000000000000000000815260040160405180910390fd5b338160000160006101000a81548173ffffffffffffffffffffffffffffffffffffffff021916908373ffffffffffffffffffffffffffffffffffffffff16021790555085816001019081610b24919061186d565b5084816002019081610b36919061186d565b5083816003018190555082816004018190555081816006019081610b5a919061186d565b5060026000815480929190610b6e9061160d565b91905055503373ffffffffffffffffffffffffffffffffffffffff167fac19613078b51501aaa270ef8c4878d3ef375fdd93e7f2b7d7e67926fae841c88787878787604051610bc195949392919061193f565b60405180910390a25060016000819055505050505050565b604051806101200160405280600073ffffffffffffffffffffffffffffffffffffffff16815260200160608152602001606081526020016000815260200160008152602001600081526020016060815260200160608152602001606081525090565b6000604051905090565b600080fd5b600080fd5b6000819050919050565b610c6281610c4f565b8114610c6d57600080fd5b50565b600081359050610c7f81610c59565b92915050565b600060208284031215610c9b57610c9a610c45565b5b6000610ca984828501610c70565b91505092915050565b600081519050919050565b600082825260208201905092915050565b6000819050602082019050919050565b600073ffffffffffffffffffffffffffffffffffffffff82169050919050565b6000610d0982610cde565b9050919050565b610d1981610cfe565b82525050565b6000610d2b8383610d10565b60208301905092915050565b6000602082019050919050565b6000610d4f82610cb2565b610d598185610cbd565b9350610d6483610cce565b8060005b83811015610d95578151610d7c8882610d1f565b9750610d8783610d37565b925050600181019050610d68565b5085935050505092915050565b600081519050919050565b600082825260208201905092915050565b6000819050602082019050919050565b610dd781610c4f565b82525050565b6000610de98383610dce565b60208301905092915050565b6000602082019050919050565b6000610e0d82610da2565b610e178185610dad565b9350610e2283610dbe565b8060005b83811015610e53578151610e3a8882610ddd565b9750610e4583610df5565b925050600181019050610e26565b5085935050505092915050565b60006040820190508181036000830152610e7a8185610d44565b90508181036020830152610e8e8184610e02565b90509392505050565b610ea081610cfe565b82525050565b600081519050919050565b600082825260208201905092915050565b60005b83811015610ee0578082015181840152602081019050610ec5565b60008484015250505050565b6000601f19601f8301169050919050565b6000610f0882610ea6565b610f128185610eb1565b9350610f22818560208601610ec2565b610f2b81610eec565b840191505092915050565b610f3f81610c4f565b82525050565b600060e082019050610f5a600083018a610e97565b8181036020830152610f6c8189610efd565b90508181036040830152610f808188610efd565b9050610f8f6060830187610f36565b610f9c6080830186610f36565b610fa960a0830185610f36565b81810360c0830152610fbb8184610efd565b905098975050505050505050565b6000602082019050610fde6000830184610f36565b92915050565b600081519050919050565b600082825260208201905092915050565b6000819050602082019050919050565b600082825260208201905092915050565b600061102c82610ea6565b6110368185611010565b9350611046818560208601610ec2565b61104f81610eec565b840191505092915050565b600082825260208201905092915050565b600061107682610cb2565b611080818561105a565b935061108b83610cce565b8060005b838110156110bc5781516110a38882610d1f565b97506110ae83610d37565b92505060018101905061108f565b5085935050505092915050565b600082825260208201905092915050565b60006110e582610da2565b6110ef81856110c9565b93506110fa83610dbe565b8060005b8381101561112b5781516111128882610ddd565b975061111d83610df5565b9250506001810190506110fe565b5085935050505092915050565b6000610120830160008301516111516000860182610d10565b50602083015184820360208601526111698282611021565b915050604083015184820360408601526111838282611021565b91505060608301516111986060860182610dce565b5060808301516111ab6080860182610dce565b5060a08301516111be60a0860182610dce565b5060c083015184820360c08601526111d68282611021565b91505060e083015184820360e08601526111f0828261106b565b91505061010083015184820361010086015261120c82826110da565b9150508091505092915050565b60006112258383611138565b905092915050565b6000602082019050919050565b600061124582610fe4565b61124f8185610fef565b93508360208202850161126185611000565b8060005b8581101561129d578484038952815161127e8582611219565b94506112898361122d565b925060208a01995050600181019050611265565b50829750879550505050505092915050565b600060208201905081810360008301526112c9818461123a565b905092915050565b600080fd5b600080fd5b7f4e487b7100000000000000000000000000000000000000000000000000000000600052604160045260246000fd5b61131382610eec565b810181811067ffffffffffffffff82111715611332576113316112db565b5b80604052505050565b6000611345610c3b565b9050611351828261130a565b919050565b600067ffffffffffffffff821115611371576113706112db565b5b61137a82610eec565b9050602081019050919050565b82818337600083830152505050565b60006113a96113a484611356565b61133b565b9050828152602081018484840111156113c5576113c46112d6565b5b6113d0848285611387565b509392505050565b600082601f8301126113ed576113ec6112d1565b5b81356113fd848260208601611396565b91505092915050565b600080600080600060a0868803121561142257611421610c45565b5b600086013567ffffffffffffffff8111156114405761143f610c4a565b5b61144c888289016113d8565b955050602086013567ffffffffffffffff81111561146d5761146c610c4a565b5b611479888289016113d8565b945050604061148a88828901610c70565b935050606061149b88828901610c70565b925050608086013567ffffffffffffffff8111156114bc576114bb610c4a565b5b6114c8888289016113d8565b9150509295509295909350565b7f4e487b7100000000000000000000000000000000000000000000000000000000600052602260045260246000fd5b6000600282049050600182168061151c57607f821691505b60208210810361152f5761152e6114d5565b5b50919050565b600081905092915050565b50565b6000611550600083611535565b915061155b82611540565b600082019050919050565b600061157182611543565b9150819050919050565b7f4e487b7100000000000000000000000000000000000000000000000000000000600052601160045260246000fd5b60006115b582610c4f565b91506115c083610c4f565b92508282019050808211156115d8576115d761157b565b5b92915050565b7f4e487b7100000000000000000000000000000000000000000000000000000000600052603260045260246000fd5b600061161882610c4f565b91507fffffffffffffffffffffffffffffffffffffffffffffffffffffffffffffffff820361164a5761164961157b565b5b600182019050919050565b7f5265656e7472616e637947756172643a207265656e7472616e742063616c6c00600082015250565b600061168b601f83610eb1565b915061169682611655565b602082019050919050565b600060208201905081810360008301526116ba8161167e565b9050919050565b60008190508160005260206000209050919050565b60006020601f8301049050919050565b600082821b905092915050565b6000600883026117237fffffffffffffffffffffffffffffffffffffffffffffffffffffffffffffffff826116e6565b61172d86836116e6565b95508019841693508086168417925050509392505050565b6000819050919050565b600061176a61176561176084610c4f565b611745565b610c4f565b9050919050565b6000819050919050565b6117848361174f565b61179861179082611771565b8484546116f3565b825550505050565b600090565b6117ad6117a0565b6117b881848461177b565b505050565b5b818110156117dc576117d16000826117a5565b6001810190506117be565b5050565b601f821115611821576117f2816116c1565b6117fb846116d6565b8101602085101561180a578190505b61181e611816856116d6565b8301826117bd565b50505b505050565b600082821c905092915050565b600061184460001984600802611826565b1980831691505092915050565b600061185d8383611833565b9150826002028217905092915050565b61187682610ea6565b67ffffffffffffffff81111561188f5761188e6112db565b5b6118998254611504565b6118a48282856117e0565b600060209050601f8311600181146118d757600084156118c5578287015190505b6118cf8582611851565b865550611937565b601f1984166118e5866116c1565b60005b8281101561190d578489015182556001820191506020850194506020810190506118e8565b8683101561192a5784890151611926601f891682611833565b8355505b6001600288020188555050505b505050505050565b600060a08201905081810360008301526119598188610efd565b9050818103602083015261196d8187610efd565b905061197c6040830186610f36565b6119896060830185610f36565b818103608083015261199b8184610efd565b9050969550505050505056fea26469706673582212209522808e13b5dbe488487ba76cfe2291e116f68824dc57c311281cde3c91641364736f6c63430008120033",
  "devdoc": {
    "kind": "dev",
    "methods": {},
    "version": 1
  },
  "userdoc": {
    "kind": "user",
    "methods": {},
    "version": 1
  },
  "storageLayout": {
    "storage": [
      {
        "astId": 10,
        "contract": "contracts/CrowdFunding.sol:CrowdFunding",
        "label": "_status",
        "offset": 0,
        "slot": "0",
        "type": "t_uint256"
      },
      {
        "astId": 76,
        "contract": "contracts/CrowdFunding.sol:CrowdFunding",
        "label": "campaigns",
        "offset": 0,
        "slot": "1",
        "type": "t_mapping(t_uint256,t_struct(Campaign)71_storage)"
      },
      {
        "astId": 79,
        "contract": "contracts/CrowdFunding.sol:CrowdFunding",
        "label": "campaignId",
        "offset": 0,
        "slot": "2",
        "type": "t_uint256"
      }
    ],
    "types": {
      "t_address": {
        "encoding": "inplace",
        "label": "address",
        "numberOfBytes": "20"
      },
      "t_array(t_address)dyn_storage": {
        "base": "t_address",
        "encoding": "dynamic_array",
        "label": "address[]",
        "numberOfBytes": "32"
      },
      "t_array(t_uint256)dyn_storage": {
        "base": "t_uint256",
        "encoding": "dynamic_array",
        "label": "uint256[]",
        "numberOfBytes": "32"
      },
      "t_mapping(t_uint256,t_struct(Campaign)71_storage)": {
        "encoding": "mapping",
        "key": "t_uint256",
        "label": "mapping(uint256 => struct CrowdFunding.Campaign)",
        "numberOfBytes": "32",
        "value": "t_struct(Campaign)71_storage"
      },
      "t_string_storage": {
        "encoding": "bytes",
        "label": "string",
        "numberOfBytes": "32"
      },
      "t_struct(Campaign)71_storage": {
        "encoding": "inplace",
        "label": "struct CrowdFunding.Campaign",
        "members": [
          {
            "astId": 52,
            "contract": "contracts/CrowdFunding.sol:CrowdFunding",
            "label": "owner",
            "offset": 0,
            "slot": "0",
            "type": "t_address"
          },
          {
            "astId": 54,
            "contract": "contracts/CrowdFunding.sol:CrowdFunding",
            "label": "title",
            "offset": 0,
            "slot": "1",
            "type": "t_string_storage"
          },
          {
            "astId": 56,
            "contract": "contracts/CrowdFunding.sol:CrowdFunding",
            "label": "description",
            "offset": 0,
            "slot": "2",
            "type": "t_string_storage"
          },
          {
            "astId": 58,
            "contract": "contracts/CrowdFunding.sol:CrowdFunding",
            "label": "target",
            "offset": 0,
            "slot": "3",
            "type": "t_uint256"
          },
          {
            "astId": 60,
            "contract": "contracts/CrowdFunding.sol:CrowdFunding",
            "label": "deadline",
            "offset": 0,
            "slot": "4",
            "type": "t_uint256"
          },
          {
            "astId": 62,
            "contract": "contracts/CrowdFunding.sol:CrowdFunding",
            "label": "amountCollected",
            "offset": 0,
            "slot": "5",
            "type": "t_uint256"
          },
          {
            "astId": 64,
            "contract": "contracts/CrowdFunding.sol:CrowdFunding",
            "label": "image",
            "offset": 0,
            "slot": "6",
            "type": "t_string_storage"
          },
          {
            "astId": 67,
            "contract": "contracts/CrowdFunding.sol:CrowdFunding",
            "label": "donators",
            "offset": 0,
            "slot": "7",
            "type": "t_array(t_address)dyn_storage"
          },
          {
            "astId": 70,
            "contract": "contracts/CrowdFunding.sol:CrowdFunding",
            "label": "donations",
            "offset": 0,
            "slot": "8",
            "type": "t_array(t_uint256)dyn_storage"
          }
        ],
        "numberOfBytes": "288"
      },
      "t_uint256": {
        "encoding": "inplace",
        "label": "uint256",
        "numberOfBytes": "32"
      }
    }
  }
}